:020000020000FC
:0200000061C1DC
:02002400DDC13C
:0200340081C188
:1000400096C10F931F932F9354985C9A55985D9A7D
:1000500056985E9A57985F9A509A519A529A539A24
:10006000589859985A985B9801E04C9B0AC0000F29
:100070004D9B07C0000F4E9B04C0000F4F9B01C05B
:1000800036C05098589A5198599A52985A9A5398FB
:100090005B9A549A559A569A579A5C985D985E98CE
:1000A0005F9810E1489B0AC0110F499B07C0110FD0
:1000B0004A9B04C0110F4B9B01C019C0010F28E8D7
:1000C000021739F021E8021749F022E8021751F02F
:1000D0000FC0503069F4D39454E00AC0503041F45A
:1000E000772706C0503021F453953BD001C0DD2462
:1000F0002F911F910F9108952F930F9305E00A956B
:1001000011F05694FCCF0F912F9108958F939F93E8
:100110000F932F93BF93AF93B1E0A0E0973010F00F
:10012000975088962AE0929FA00D282F2695269515
:100130002695A20F877000E021E0801719F0220FAA
:100140000395FBCF8C91082F0223003009F07FEF3D
:10015000282B2D93AF91BF912F910F919F918F914C
:1001600008958F939F932F93BF93AF93B3E0A0E035
:10017000242D220FA20F86E28D939AE09C93439444
:10018000AF91BF912F919F918F9108958F939F93DE
:100190004F922F93BF93AF93242DB3E0A0E0203074
:1001A00089F02A958D919D91B1DF9395AFDF83956D
:1001B000ADDF8A958A95AADF83959395A7DF9395FE
:1001C000A5DFEDCFAF91BF912F914F909F918F9170
:1001D00008958F932F93BF93AF93242DB3E0A0E0A6
:1001E000203071F02A958C918A9531F44A9447D049
:1001F000B8DFA395A395F4CF8C93A395A395F0CFE7
:10020000AF91BF912F918F9108958F939F93BF933B
:10021000AF93B3E0A0E58D919C9178DF8A9576DF6E
:10022000939574DF939572DF839570DF8A9593952C
:100230006DDF93956BDF939569DF9A959A958A9513
:1002400065DF9A9563DF8A9561DF93955FDF93950C
:100250005DDF93955BDFAF91BF919F918F91089583
:100260008F939F93BF93AF93B3E0A0E584E08D930A
:1002700098E09D93AF91BF919F918F9108958F9337
:100280002F934F92BF93AF93242DB3E0A0E0220FA2
:1002900039F012968C91AA95AA958D932A95F8CF4C
:1002A000AF91BF914F902F918F9108952F933F92CF
:1002B0003394341421F0252D2C3108F452DF3F9073
:1002C0002F9108957FEFEBD020E024BD25E025BDE0
:1002D0002CE3F22EF6BC239A2B98249A2C98259A7C
:1002E0002D983A9A429A4424332433943394339485
:1002F000BB24B6DF36DF5527EE24FF2420E0209311
:10030000800023E020938100DCE3C0EBD0938500E4
:10031000C093840020E02093B00027E02093B10038
:1003200020E02093B200789421E020936F00209386
:100330006E002093700069C02F932FB72F930F93F7
:10034000D0938500C093840044DF2B2D01E0B022C0
:100350002695243621F02395220FB22A03C02227A6
:100360002395B2260F912F912FBF2F911895BF93F0
:10037000AF932F932FB72F93F6BC513058F153956D
:100380005F3150F425E05F93521BF4F7520F252F95
:100390005F91203089F01EC021E0D21609F002C022
:1003A000583CC0F025E05F93521BF4F7520F252F05
:1003B0005F91203039F00EC0B3E0A1E52C912A9571
:1003C0002C9308C0B3E0A1E52C9123952C93283001
:1003D00009F455272F912FBF2F91AF91BF911895F9
:1003E0002F932FB72F9320E02093B2002CE8F21622
:1003F00040F4E3942A96E3942EE1E21610F0F3948D
:10040000EE242F912FBF2F91189508D048D0FDDEF4
:1004100018DE703009F05FCFB9DEF7CFBF93AF932E
:100420001127B1E0A0E01A9754961395183019F4EB
:10043000AF91BF91089500E52E9068E0B0FE03C033
:1004400027FE05C002C027FC02C02B9801C02B9AD2
:100450002D9A2D980A9521F06A9571F3220CEECF12
:1004600008E0011711F02B9801C02B9A2D9A2D98B6
:100470000A9509F0F6CF2C9A04D02C9802D0D4CF4C
:1004800008952F930F932227002723952F3FE9F7F5
:10049000222703950330C9F70F912F910895BF9339
:1004A000AF93B1E0AA2706E422272D930A95E9F736
:0604B000AF91BF91089519
:00000001FF
