:020000020000FC
:02000000A3C596
:0200240075C5A0
:020034003DC5C8
:1000400000C52F930F932227002723952F3FE9F711
:10005000222703950330C9F70F912F9108952F930D
:1000600030FF12C03E7F3D7F3F7E4BD142D271E0D8
:1000700083D13460CC2420E02093B00026E020938C
:10008000B10029EB2093B2002F9108958F939F9395
:100090002F93BF93AF93B3E0A0E0242D220FA20FC4
:1000A00086E28D939AE09C934394AF91BF912F91F8
:1000B0009F918F9108958F932F93BF93AF93242D8A
:1000C000B3E0A0E0203059F02A958C918A9519F47C
:1000D0004A940AD0F7CF8C93A395A395F3CFAF9111
:1000E000BF912F918F9108958F932F934F92BF932C
:1000F000AF93242DB3E0A0E0220F39F012968C913B
:10010000AA95AA958D932A95F8CFAF91BF914F905C
:100110002F918F9108952F933F92BF93AF938F9319
:10012000B3E0A0E0341481F0242D203041F02A9572
:10013000220FA20F8C91803238F4873028F042D4FD
:10014000252D233008F4A2DF8F91AF91BF913F900E
:100150002F9108958F939F93BF93AF93B3E0A0E542
:1001600084E08D9398E09D9300C0AF91BF919F91E3
:100170008F910895BF93AF932F938F93B3E0A0E532
:100180008C9127E2281B822F8C938F912F91AF9116
:10019000BF9108952F932FE02E23293010F4E3957B
:1001A00019C020EF2E23203920F4E22F20E1E20FA6
:1001B00011C0EE272FE02F23293010F4F3950AC049
:1001C00020EF2F23203920F4F22F20E1F20F02C07C
:1001D000F9E9E9E92F9108950F931F932F9354980C
:1001E0005C9A55985D9A56985E9A57985F9A509A7D
:1001F000519A529A539A589859985A985B9801E094
:100200004C9B0AC0000F4D9B07C0000F4E9B04C0C3
:10021000000F4F9B01C033C05098589A5198599A7B
:1002200052985A9A53985B9A549A559A569A579A52
:100230005C985D985E985F9810E1489B0AC0110F2A
:10024000499B07C0110F4A9B04C0110F4B9B01C073
:1002500016C0010F28E8021721F021E8021741F02B
:100260000FC033FD0DC0503059F4386054E008C061
:1002700033FD06C03860C6D37DD4772701C0377FF1
:100280002F911F910F910895BF93AF931127B1E064
:10029000A0E01A9754961395183069F408E52B9846
:1002A0002D9A2D980A95D9F72C9ACBDE2C98C9DE79
:1002B000AF91BF91089500E52E9068E031FF03C033
:1002C00027FE05C002C027FC02C02B9801C02B9A54
:1002D0002D9A2D980A9521F06A9571F3220CEECF94
:1002E00008E0011711F02B9801C02B9A2D9A2D9838
:1002F0000A9509F0F6CF2C9AA4DE2C98A2DECACF7C
:100300000895BF93AF932F930F93B1E0AA2706E40C
:1003100022272D930A95E9F70F912F91AF91BF9165
:1003200008958F939F930F932F93BF93AF93B1E053
:10033000A0E0973010F0975088962AE0929FA00D89
:10034000282F269526952695A20F877000E021E09C
:10035000801719F0220F0395FBCF8C91082F0223F1
:10036000003009F03160282B2D93AF91BF912F9170
:100370000F919F918F910895EF93FF932F930F9378
:100380008F939F93703029F491E086E234FD8FE0E3
:1003900002C08BE199E005E00A9579F12FE02E2368
:1003A000203011F40AD221C0213011F41FD21DC017
:1003B000223011F430D219C0233011F446D215C0C6
:1003C000243011F45ED211C0253011F473D20DC067
:1003D000263011F489D209C0273011F4A0D205C00B
:1003E000283011F4B4D201C0D0D28A958A9525E084
:1003F0002A9591F2F695E795FBCF9F918F910F91FA
:100400002F91FF91EF9108958F939F934F920F93A8
:100410002F93BF93AF93242DB3E0A0E02030B1F031
:100420002A958D919D9134FF03C007E2081B802F10
:1004300078DF939576DF839574DF8A958A9571DFEF
:10044000839593956EDF93956CDFE8CFAF91BF9165
:100450002F910F914F909F918F9108958F939F931C
:10046000BF93AF93B3E0A0E58D919C9134FD1FC085
:1004700058DF8A9556DF939554DF939552DF839525
:1004800050DF8A9593954DDF93954BDF939549DF28
:100490009A959A958A9545DF9A9543DF8A9541DF2B
:1004A00093953FDF93953DDF93953BDF1DC039DF8B
:1004B000839537DF939535DF939533DF8A9531DF69
:1004C000839583952EDF83952CDF93952ADF8A957C
:1004D00028DF8A9526DF939524DF939522DF839585
:1004E00083951FDF9A951DDFAF91BF919F918F91EB
:1004F00008958F939F9384E091E013DF839511DF3C
:1005000083950FDF83950DDF839583950ADF8395B0
:1005100008DF839506DF8395839503DF839501DFED
:100520008395FFDE83958395FCDE8395FADE8395C4
:100530008395839583958395F4DE8395F2DE839589
:10054000F0DE83958395EDDE83958395EADE8395D2
:100550008395E7DE8395E5DE83958395E2DE8395DB
:10056000E0DE8395DEDE84E09395DBDE8395839584
:10057000839583958395D5DE83958395D2DE839588
:100580008395CFDE8395CDDE8395CBDE83958395F2
:10059000C8DE839583958395839583958395C1DE86
:1005A00083958395BEDE83958395BBDE8395839586
:1005B000B8DE83958395B5DE839583958395B1DE0B
:1005C00083958395AEDE84E09395ABDE839583952A
:1005D000839583958395A5DE83958395A2DE839588
:1005E00083959FDE83959DDE83959BDE8395839522
:1005F00098DE83958395839583958395839591DE86
:10060000839583958EDE839583958BDE8395839585
:1006100088DE8395839585DE83958395839581DE3A
:10062000839583957EDE84E093957BDE8395839529
:1006300078DE839576DE8395839573DE8395839547
:1006400070DE839583956DDE839583956ADE839551
:10065000839567DE839565DE839583958395839582
:1006600083955FDE839583955CDE8395839559DE64
:100670008395839556DE8395839553DE839551DE6E
:10068000839583954EDE83954CDE839584E0939528
:1006900048DE83958395839544DE8395839541DE7B
:1006A00083953FDE83953DDE839583953ADE839582
:1006B000839537DE8395839534DE83958395839583
:1006C0008395839583952DDE839583952ADE839587
:1006D000839527DE8395839524DE8395839521DE9C
:1006E0008395839583951DDE83951BDE839584E03A
:1006F000939517DE83958395839513DE8395839574
:1007000010DE839583950DDE839583950ADE8395B0
:10071000839507DE8395839504DE83958395839582
:10072000839583958395FDDD83958395FADD839588
:1007300083958395F6DD839583958395F2DD839587
:1007400083958395EEDD83958395EBDD84E093952A
:10075000E8DD8395E6DD8395E4DD8395E2DD839531
:100760008395DFDD83958395DCDD83958395D9DDE6
:1007700083958395D6DD83958395D3DD8395D1DDF0
:1007800083958395839583958395CBDD8395C9DD8B
:100790008395C7DD839583958395C3DD8395839585
:1007A0008395BFDD8395BDDD83958395BADD839504
:1007B0008395B7DD9F918F910895B3DD9395B1DD5A
:1007C0009395AFDD9395ADDD9395ABDD8A95A9DD6E
:1007D0008A95A7DD9A95A5DD9A95A3DD9A95A1DD69
:1007E0009A959FDD83959DDD8A9508959ADD939571
:1007F00098DD8A9596DD8A95939593DD839583950B
:1008000090DD93958EDD93958CDD02979A959A9560
:100810009A959A95089585DD939583DD939581DD6D
:100820008A957FDD8A957DDD93957BDD939579DDD6
:10083000839577DD839575DD9A959A959A959A9526
:100840008A956FDD8A956DDD08956BDD8A9569DD8A
:100850008A9567DD9395939564DD839562DD839535
:1008600060DD9A955EDD939593955BDD939559DDFB
:100870008A9557DD8A9555DD9A959A959A959A9518
:1008800008954FDD8A958A954CDD93954ADD9395C1
:1008900048DD839546DD839544DD9A9542DD939549
:1008A00093953FDD93953DDD02979A959A959A959C
:1008B0009A95089536DD8A9534DD8A9532DD9395D3
:1008C00030DD93952EDD83952CDD83952ADD939580
:1008D00028DD939526DD8A9524DD8A9522DD9A957B
:1008E0009A959A959A9508951CDD8A951ADD8A95B0
:1008F00018DD939516DD939514DD839512DD8395B0
:1009000010DD93950EDD93950CDD8A950ADD8A95B1
:1009100008DD9A9506DD9A959A959A95089501DDD8
:100920008A95FFDC8A95FDDC839583959395F9DCA8
:100930009395F7DC8A95F5DC83959395F2DC939596
:10094000F0DC02979A959A959A959A950895E9DC24
:100950008A95E7DC8A95E5DC9395E3DC9395E1DC09
:100960008395DFDC8395DDDC9A95DBDC93959395AD
:10097000D8DC9395D6DC8A95D4DC8A95D2DC9A951E
:10098000D0DC9A959A959A950895CBDC8A95C9DC26
:100990008A95C7DC9395C5DC9395C3DC8395C1DC50
:1009A0008395BFDC9A95BDDC93959395BADC9395BE
:1009B000B8DC8A95B6DC8A95B4DC9A959A959A95B6
:1009C0009A9508952F93DF92D62C2CD06D2CD72C8E
:1009D00029D07D2CD82C26D08D2CD92C23D09D2C01
:1009E000DA2C20D0AD2C222760FC216070FC226024
:1009F00080FC246090FC2860A0FC2061522EDF90D7
:100A00002F9108952F93609084007090850086B494
:100A10009090B200209184002F70A22E207FA226F9
:100A20002F9108952F930F93D7942D2D18F02F7792
:100A300000E002C0206808E32027D22E0F912F91FA
:100A40000895BF93AF932F932FB72F93F6BC5430D5
:100A500048F153955F3150F425E05F93521BF0F756
:100A6000520F252F5F91203079F01CC033FF02C058
:100A7000583CC0F025E05F93521BF0F7520F252F32
:100A80005F91203039F00EC0B3E0A1E52C912A959A
:100A90002C9308C0B3E0A1E52C9123952C9328302A
:100AA00009F455272F912FBF2F91AF91BF91189522
:100AB0002F932FB72F930F93D0938500C09384006B
:100AC000FADA68DB7030F9F426DB2227B216D1F0AF
:100AD00022E3BF92B21AF0F7B20E2B2DBF90203056
:100AE00089F4339420E1322745DB24E6BF92B21A21
:100AF000F0F7B20E2B2DBF90203021F422E03227E8
:100B0000BB2401C0B3940F912F912FBF2F91189543
:100B10002F932FB72F9320E02093B20024EBF216EF
:100B200040F4E3942A96E3942EE1E21610F0F39455
:100B3000EE2432FF05C029EB2093B200199AC3942A
:100B40002F912FBF2F91189515D0703029F4D9DB34
:100B50005BDC84DC11DC0AC07F3F19F4D2DB7EDC75
:100B600005C02C2D2F3F10F03B7F299835DB8CDB07
:100B700076DAEBCFC6DB7FEF44243324339455275A
:100B8000BB24FF27EE273327EE24FF24219A299840
:100B9000239A2B98249A2C98259A2D983A9A429A1F
:100BA00020E024BD25E025BD2CE3F22EF6BC20E09C
:100BB0002093800023E020938100DCE3C0EBD093FE
:100BC0008500C093840020E02093B00027E02093AC
:100BD000B10020E02093B200789421E020936F00D0
:0E0BE00020936E0020937000B5DA50DA08956D
:00000001FF
