:020000020000FC
:0200000042C1FB
:02002400A7C172
:020034005BC1AE
:1000400061C10F931F932F9354985C9A55985D9AB2
:1000500056985E9A57985F9A509A519A529A539A24
:10006000589859985A985B9801E04C9B0AC0000F29
:100070004D9B07C0000F4E9B04C0000F4F9B01C05B
:100080002DC05098589A5198599A52985A9A539804
:100090005B9A549A559A569A579A5C985D985E98CE
:1000A0005F9810E1489B0AC0110F499B07C0110FD0
:1000B0004A9B04C0110F4B9B01C010C0010F28E4E4
:1000C000021721F021E4021729F00BC0503049F447
:1000D000539507C0503029F4772703C0553708F0EF
:1000E00055272F911F910F9108958F939F930F93F1
:1000F0002F93BF93AF93B1E0A0E0973010F09750EB
:1001000088962AE0929FA00D282F26952695269561
:10011000A20F877000E021E0801719F0220F0395ED
:10012000FBCF8C91082F0223003009F07FEF282BA2
:100130002D93AF91BF912F910F919F918F91089522
:100140008F939F932F93BF93AF93B3E0A0E0242DA1
:10015000220FA20F86E28D939AE09D934394AF9174
:10016000BF912F919F918F9108958F939F934F925D
:100170002F93BF93AF93242DB3E0A0E0203081F004
:100180002A958D919D91B1DF9395AFDF8395ADDF7A
:100190008A958A95AADF83959395A7DF9395A5DF26
:1001A000AF91BF912F914F909F918F9108958F9311
:1001B0002F93BF93AF93242DB3E0A0E0203069F0DC
:1001C0002A958C918A9529F44A94BADFA395A39530
:1001D000F5CF8C93A395A395F1CFAF91BF912F91BC
:1001E0008F9108958F939F93BF93AF93B3E0A0E552
:1001F0008D919C917ADF8A9578DF939576DF939540
:1002000074DF839572DF8A9593956FDF93956DDF29
:1002100093956BDF9A959A958A9567DF9A9565DF36
:100220008A9563DF939561DF93955FDF93955DDF3B
:10023000AF91BF919F918F9108958F939F93BF939B
:10024000AF93B3E0A0E584E08D9398E09D93AF91E8
:10025000BF919F918F9108958F932F934F92BF934A
:10026000AF93242DB3E0A0E0220F39F012962C9129
:10027000AA95AA952D932A95F8CFAF91BF914F904B
:100280002F918F9108957FEF239A2B98249A2C9881
:10029000259A2D983A9A429A442433243394CDDFF8
:1002A0004FDF552720E02093800023E0209381003A
:1002B000DCE3C0EBD0938500C093840020E024BD34
:1002C00025E025BD24E026BD20E02093B00027E0F6
:1002D0002093B10020E02093B200789421E0209395
:1002E0006F0020936E00209370004FC02F932FB7A4
:1002F0002F93D0938500C093840059DF2F912FBF97
:100300002F911895BF93AF932F932FB72F9324E07E
:1003100026BD513048F153955230C9F05730B9F0ED
:100320005C30A9F0513199F0563189F05B3179F0A8
:100330005C3599F0513689F0563679F05B3669F0C4
:10034000503759F0553749F0563769F00DC0B3E0D2
:10035000A1E52C912A952C9307C0B3E0A1E52C913F
:1003600023952C9301C05A952F912FBF2F91AF91B8
:10037000BF9118952F932FB72F9320E02093B200B1
:100380002A962F912FBF2F91189508D03ED02ADFA3
:1003900058DE703009F078CFE8DEF7CFBF93AF9327
:1003A0001127B1E0A0E01A9754961395183019F46C
:1003B000AF91BF91089500E52E9068E027FC02C040
:1003C0002B9801C02B9A2D9A2D980A9521F06A95A9
:1003D00099F3220CF3CF08E0011711F02B9801C01C
:1003E0002B9A2D9A2D980A9509F0F6CF2C9A03D0C6
:1003F0002C98DACF08953327442733953F3FE9F708
:10040000332743954230C9F70895BF93AF93B1E0C6
:10041000AA2706E422272D930A95E9F7AF91BF9109
:0204200008953D
:00000001FF
