:020000020000FC
:0200000012C12B
:020034001FC1EA
:1000400027C10F931F932F9354985C9A55985D9AEC
:1000500056985E9A57985F9A509A519A529A539A24
:10006000589859985A985B9801E04C9B0AC0000F29
:100070004D9B07C0000F4E9B04C0000F4F9B01C05B
:1000800026C05098589A5198599A52985A9A53980B
:100090005B9A549A559A569A579A5C985D985E98CE
:1000A0005F9810E1489B0AC0110F499B07C0110FD0
:1000B0004A9B04C0110F4B9B01C009C0010F28E4EB
:1000C000021709F007C0503029F408D003C05B398B
:1000D00008F055272F911F910F9108958F939F93AB
:1000E0002F93BF93AF935395B3E0A0E584E08D9336
:1000F00092E09D93AF91BF912F919F918F91089521
:100100008F939F93BF93AF93B1E0A0E0973010F02F
:10011000975088962AE0929FA00D282F2695269525
:100120002695A20F877000E021E0801719F0220FBA
:100130000395FBCF8C91282B2D93AF91BF919F916D
:100140008F9118958F939F93BF93AF93B3E0A0E0E7
:1001500086E28D939AE09D93AF91BF919F918F918D
:1001600008958F939F93BF93AF93B3E0A0E08D91D9
:100170009D91C6DF9395C4DF8395C2DF8A958A95EA
:10018000BFDF83959395BCDF9395BADFAF91BF91A5
:100190009F918F9108958F93BF93AF93B3E0A0E0A9
:1001A0008C918A9509F486E28C93AF91BF918F91DF
:1001B00008958F939F93BF93AF93B3E0A0E58D9184
:1001C0009C919EDF8A959CDF93959ADF939598DFAB
:1001D000839596DF8A95939593DF939591DF939519
:1001E0008FDF9A959A958A958BDF9A9589DF8A9504
:1001F00087DF939585DF939583DF939581DFAF91BB
:10020000BF919F918F9108958F939F93BF93AF93C9
:10021000B3E0A0E584E08D9398E09D93AF91BF910A
:100220009F918F910895239A2B98249A2C98259A20
:100230002D983A9A429AE8DF85DF5527B1E0A0E091
:100240001A9720E02093800025E02093810023EF7F
:10025000209385002BEC2093840020E024BD25E032
:1002600025BD24E026BD789421E020936F002093E3
:100270006E0024C02F932FB72F9323EF2093850078
:100280002BEC2093840087DF2F912FBF2F9118959F
:10029000BF93AF932F932FB72F9324E026BD5130F8
:1002A00038F053955B3909F4AFDF5C3908F05BE94E
:1002B0002F912FBF2F91AF91BF9118953CD0C1DEE8
:1002C00078DF4FDF01D0FACFBF93AF931127B1E0B2
:1002D000A0E01A9754961395183019F4AF91BF9176
:1002E000189500E57E9168E077FD02C02B9801C06B
:1002F0002B9A2D9A2D980A9521F06A9599F3770FEC
:10030000F3CF08E0011711F02B9801C02B9A2D9A1A
:100310002D980A9509F0F6CF2C9A03D02C98DACFB5
:1003200018953327442733953F3FE9F73327439503
:100330004230C9F71895BF93AF93B1E0AA2706E4FE
:0E03400022272D930A95E9F7AF91BF911895EA
:00000001FF
